{"abi":[{"type":"constructor","inputs":[{"name":"_poolManager","type":"address","internalType":"contract IPoolManager"},{"name":"_authorizedUser","type":"address","internalType":"address"},{"name":"_hookChainId","type":"uint256","internalType":"uint256"},{"name":"router","type":"address","internalType":"address"}],"stateMutability":"nonpayable"},{"type":"function","name":"addLiquidityWithCrossChainStrategy","inputs":[{"name":"key","type":"tuple","internalType":"struct PoolKey","components":[{"name":"currency0","type":"address","internalType":"Currency"},{"name":"currency1","type":"address","internalType":"Currency"},{"name":"fee","type":"uint24","internalType":"uint24"},{"name":"tickSpacing","type":"int24","internalType":"int24"},{"name":"hooks","type":"address","internalType":"contract IHooks"}]},{"name":"params","type":"tuple","internalType":"struct IPoolManager.ModifyLiquidityParams","components":[{"name":"tickLower","type":"int24","internalType":"int24"},{"name":"tickUpper","type":"int24","internalType":"int24"},{"name":"liquidityDelta","type":"int256","internalType":"int256"},{"name":"salt","type":"bytes32","internalType":"bytes32"}]},{"name":"strategyId","type":"uint256","internalType":"uint256"}],"outputs":[{"name":"delta","type":"int256","internalType":"BalanceDelta"}],"stateMutability":"nonpayable"},{"type":"function","name":"addStrategy","inputs":[{"name":"poolId","type":"bytes32","internalType":"PoolId"},{"name":"strategyId","type":"uint256","internalType":"uint256"},{"name":"chainIds","type":"uint256[]","internalType":"uint256[]"},{"name":"liquidityPercentages","type":"uint256[]","internalType":"uint256[]"},{"name":"chainSelectors","type":"uint64[]","internalType":"uint64[]"},{"name":"hooks","type":"address[]","internalType":"address[]"}],"outputs":[],"stateMutability":"nonpayable"},{"type":"function","name":"afterAddLiquidity","inputs":[{"name":"","type":"address","internalType":"address"},{"name":"","type":"tuple","internalType":"struct PoolKey","components":[{"name":"currency0","type":"address","internalType":"Currency"},{"name":"currency1","type":"address","internalType":"Currency"},{"name":"fee","type":"uint24","internalType":"uint24"},{"name":"tickSpacing","type":"int24","internalType":"int24"},{"name":"hooks","type":"address","internalType":"contract IHooks"}]},{"name":"","type":"tuple","internalType":"struct IPoolManager.ModifyLiquidityParams","components":[{"name":"tickLower","type":"int24","internalType":"int24"},{"name":"tickUpper","type":"int24","internalType":"int24"},{"name":"liquidityDelta","type":"int256","internalType":"int256"},{"name":"salt","type":"bytes32","internalType":"bytes32"}]},{"name":"","type":"int256","internalType":"BalanceDelta"},{"name":"","type":"int256","internalType":"BalanceDelta"},{"name":"","type":"bytes","internalType":"bytes"}],"outputs":[{"name":"","type":"bytes4","internalType":"bytes4"},{"name":"","type":"int256","internalType":"BalanceDelta"}],"stateMutability":"nonpayable"},{"type":"function","name":"afterDonate","inputs":[{"name":"","type":"address","internalType":"address"},{"name":"","type":"tuple","internalType":"struct PoolKey","components":[{"name":"currency0","type":"address","internalType":"Currency"},{"name":"currency1","type":"address","internalType":"Currency"},{"name":"fee","type":"uint24","internalType":"uint24"},{"name":"tickSpacing","type":"int24","internalType":"int24"},{"name":"hooks","type":"address","internalType":"contract IHooks"}]},{"name":"","type":"uint256","internalType":"uint256"},{"name":"","type":"uint256","internalType":"uint256"},{"name":"","type":"bytes","internalType":"bytes"}],"outputs":[{"name":"","type":"bytes4","internalType":"bytes4"}],"stateMutability":"nonpayable"},{"type":"function","name":"afterInitialize","inputs":[{"name":"","type":"address","internalType":"address"},{"name":"","type":"tuple","internalType":"struct PoolKey","components":[{"name":"currency0","type":"address","internalType":"Currency"},{"name":"currency1","type":"address","internalType":"Currency"},{"name":"fee","type":"uint24","internalType":"uint24"},{"name":"tickSpacing","type":"int24","internalType":"int24"},{"name":"hooks","type":"address","internalType":"contract IHooks"}]},{"name":"","type":"uint160","internalType":"uint160"},{"name":"","type":"int24","internalType":"int24"},{"name":"","type":"bytes","internalType":"bytes"}],"outputs":[{"name":"","type":"bytes4","internalType":"bytes4"}],"stateMutability":"nonpayable"},{"type":"function","name":"afterRemoveLiquidity","inputs":[{"name":"","type":"address","internalType":"address"},{"name":"","type":"tuple","internalType":"struct PoolKey","components":[{"name":"currency0","type":"address","internalType":"Currency"},{"name":"currency1","type":"address","internalType":"Currency"},{"name":"fee","type":"uint24","internalType":"uint24"},{"name":"tickSpacing","type":"int24","internalType":"int24"},{"name":"hooks","type":"address","internalType":"contract IHooks"}]},{"name":"","type":"tuple","internalType":"struct IPoolManager.ModifyLiquidityParams","components":[{"name":"tickLower","type":"int24","internalType":"int24"},{"name":"tickUpper","type":"int24","internalType":"int24"},{"name":"liquidityDelta","type":"int256","internalType":"int256"},{"name":"salt","type":"bytes32","internalType":"bytes32"}]},{"name":"","type":"int256","internalType":"BalanceDelta"},{"name":"","type":"int256","internalType":"BalanceDelta"},{"name":"","type":"bytes","internalType":"bytes"}],"outputs":[{"name":"","type":"bytes4","internalType":"bytes4"},{"name":"","type":"int256","internalType":"BalanceDelta"}],"stateMutability":"nonpayable"},{"type":"function","name":"afterSwap","inputs":[{"name":"","type":"address","internalType":"address"},{"name":"","type":"tuple","internalType":"struct PoolKey","components":[{"name":"currency0","type":"address","internalType":"Currency"},{"name":"currency1","type":"address","internalType":"Currency"},{"name":"fee","type":"uint24","internalType":"uint24"},{"name":"tickSpacing","type":"int24","internalType":"int24"},{"name":"hooks","type":"address","internalType":"contract IHooks"}]},{"name":"","type":"tuple","internalType":"struct IPoolManager.SwapParams","components":[{"name":"zeroForOne","type":"bool","internalType":"bool"},{"name":"amountSpecified","type":"int256","internalType":"int256"},{"name":"sqrtPriceLimitX96","type":"uint160","internalType":"uint160"}]},{"name":"","type":"int256","internalType":"BalanceDelta"},{"name":"","type":"bytes","internalType":"bytes"}],"outputs":[{"name":"","type":"bytes4","internalType":"bytes4"},{"name":"","type":"int128","internalType":"int128"}],"stateMutability":"nonpayable"},{"type":"function","name":"authorizedUser","inputs":[],"outputs":[{"name":"","type":"address","internalType":"address"}],"stateMutability":"view"},{"type":"function","name":"beforeAddLiquidity","inputs":[{"name":"sender","type":"address","internalType":"address"},{"name":"","type":"tuple","internalType":"struct PoolKey","components":[{"name":"currency0","type":"address","internalType":"Currency"},{"name":"currency1","type":"address","internalType":"Currency"},{"name":"fee","type":"uint24","internalType":"uint24"},{"name":"tickSpacing","type":"int24","internalType":"int24"},{"name":"hooks","type":"address","internalType":"contract IHooks"}]},{"name":"","type":"tuple","internalType":"struct IPoolManager.ModifyLiquidityParams","components":[{"name":"tickLower","type":"int24","internalType":"int24"},{"name":"tickUpper","type":"int24","internalType":"int24"},{"name":"liquidityDelta","type":"int256","internalType":"int256"},{"name":"salt","type":"bytes32","internalType":"bytes32"}]},{"name":"","type":"bytes","internalType":"bytes"}],"outputs":[{"name":"","type":"bytes4","internalType":"bytes4"}],"stateMutability":"view"},{"type":"function","name":"beforeDonate","inputs":[{"name":"","type":"address","internalType":"address"},{"name":"","type":"tuple","internalType":"struct PoolKey","components":[{"name":"currency0","type":"address","internalType":"Currency"},{"name":"currency1","type":"address","internalType":"Currency"},{"name":"fee","type":"uint24","internalType":"uint24"},{"name":"tickSpacing","type":"int24","internalType":"int24"},{"name":"hooks","type":"address","internalType":"contract IHooks"}]},{"name":"","type":"uint256","internalType":"uint256"},{"name":"","type":"uint256","internalType":"uint256"},{"name":"","type":"bytes","internalType":"bytes"}],"outputs":[{"name":"","type":"bytes4","internalType":"bytes4"}],"stateMutability":"nonpayable"},{"type":"function","name":"beforeInitialize","inputs":[{"name":"","type":"address","internalType":"address"},{"name":"","type":"tuple","internalType":"struct PoolKey","components":[{"name":"currency0","type":"address","internalType":"Currency"},{"name":"currency1","type":"address","internalType":"Currency"},{"name":"fee","type":"uint24","internalType":"uint24"},{"name":"tickSpacing","type":"int24","internalType":"int24"},{"name":"hooks","type":"address","internalType":"contract IHooks"}]},{"name":"","type":"uint160","internalType":"uint160"},{"name":"","type":"bytes","internalType":"bytes"}],"outputs":[{"name":"","type":"bytes4","internalType":"bytes4"}],"stateMutability":"nonpayable"},{"type":"function","name":"beforeRemoveLiquidity","inputs":[{"name":"","type":"address","internalType":"address"},{"name":"","type":"tuple","internalType":"struct PoolKey","components":[{"name":"currency0","type":"address","internalType":"Currency"},{"name":"currency1","type":"address","internalType":"Currency"},{"name":"fee","type":"uint24","internalType":"uint24"},{"name":"tickSpacing","type":"int24","internalType":"int24"},{"name":"hooks","type":"address","internalType":"contract IHooks"}]},{"name":"","type":"tuple","internalType":"struct IPoolManager.ModifyLiquidityParams","components":[{"name":"tickLower","type":"int24","internalType":"int24"},{"name":"tickUpper","type":"int24","internalType":"int24"},{"name":"liquidityDelta","type":"int256","internalType":"int256"},{"name":"salt","type":"bytes32","internalType":"bytes32"}]},{"name":"","type":"bytes","internalType":"bytes"}],"outputs":[{"name":"","type":"bytes4","internalType":"bytes4"}],"stateMutability":"nonpayable"},{"type":"function","name":"beforeSwap","inputs":[{"name":"","type":"address","internalType":"address"},{"name":"","type":"tuple","internalType":"struct PoolKey","components":[{"name":"currency0","type":"address","internalType":"Currency"},{"name":"currency1","type":"address","internalType":"Currency"},{"name":"fee","type":"uint24","internalType":"uint24"},{"name":"tickSpacing","type":"int24","internalType":"int24"},{"name":"hooks","type":"address","internalType":"contract IHooks"}]},{"name":"","type":"tuple","internalType":"struct IPoolManager.SwapParams","components":[{"name":"zeroForOne","type":"bool","internalType":"bool"},{"name":"amountSpecified","type":"int256","internalType":"int256"},{"name":"sqrtPriceLimitX96","type":"uint160","internalType":"uint160"}]},{"name":"","type":"bytes","internalType":"bytes"}],"outputs":[{"name":"","type":"bytes4","internalType":"bytes4"},{"name":"","type":"int256","internalType":"BeforeSwapDelta"},{"name":"","type":"uint24","internalType":"uint24"}],"stateMutability":"nonpayable"},{"type":"function","name":"ccipReceive","inputs":[{"name":"message","type":"tuple","internalType":"struct Client.Any2EVMMessage","components":[{"name":"messageId","type":"bytes32","internalType":"bytes32"},{"name":"sourceChainSelector","type":"uint64","internalType":"uint64"},{"name":"sender","type":"bytes","internalType":"bytes"},{"name":"data","type":"bytes","internalType":"bytes"},{"name":"destTokenAmounts","type":"tuple[]","internalType":"struct Client.EVMTokenAmount[]","components":[{"name":"token","type":"address","internalType":"address"},{"name":"amount","type":"uint256","internalType":"uint256"}]}]}],"outputs":[],"stateMutability":"nonpayable"},{"type":"function","name":"getHookPermissions","inputs":[],"outputs":[{"name":"","type":"tuple","internalType":"struct Hooks.Permissions","components":[{"name":"beforeInitialize","type":"bool","internalType":"bool"},{"name":"afterInitialize","type":"bool","internalType":"bool"},{"name":"beforeAddLiquidity","type":"bool","internalType":"bool"},{"name":"afterAddLiquidity","type":"bool","internalType":"bool"},{"name":"beforeRemoveLiquidity","type":"bool","internalType":"bool"},{"name":"afterRemoveLiquidity","type":"bool","internalType":"bool"},{"name":"beforeSwap","type":"bool","internalType":"bool"},{"name":"afterSwap","type":"bool","internalType":"bool"},{"name":"beforeDonate","type":"bool","internalType":"bool"},{"name":"afterDonate","type":"bool","internalType":"bool"},{"name":"beforeSwapReturnDelta","type":"bool","internalType":"bool"},{"name":"afterSwapReturnDelta","type":"bool","internalType":"bool"},{"name":"afterAddLiquidityReturnDelta","type":"bool","internalType":"bool"},{"name":"afterRemoveLiquidityReturnDelta","type":"bool","internalType":"bool"}]}],"stateMutability":"pure"},{"type":"function","name":"getLastReceivedMessageDetails","inputs":[],"outputs":[{"name":"messageId","type":"bytes32","internalType":"bytes32"},{"name":"sourceChainSelector","type":"uint64","internalType":"uint64"},{"name":"sender","type":"address","internalType":"address"},{"name":"token0","type":"address","internalType":"address"},{"name":"amount0","type":"uint256","internalType":"uint256"},{"name":"token1","type":"address","internalType":"address"},{"name":"amount1","type":"uint256","internalType":"uint256"}],"stateMutability":"view"},{"type":"function","name":"getNumberOfReceivedMessages","inputs":[],"outputs":[{"name":"number","type":"uint256","internalType":"uint256"}],"stateMutability":"view"},{"type":"function","name":"getReceivedMessageAt","inputs":[{"name":"index","type":"uint256","internalType":"uint256"}],"outputs":[{"name":"messageId","type":"bytes32","internalType":"bytes32"},{"name":"sourceChainSelector","type":"uint64","internalType":"uint64"},{"name":"sender","type":"address","internalType":"address"},{"name":"token0","type":"address","internalType":"address"},{"name":"amount0","type":"uint256","internalType":"uint256"},{"name":"token1","type":"address","internalType":"address"},{"name":"amount1","type":"uint256","internalType":"uint256"}],"stateMutability":"view"},{"type":"function","name":"getReceivedMessageDetails","inputs":[{"name":"messageId","type":"bytes32","internalType":"bytes32"}],"outputs":[{"name":"sourceChainSelector","type":"uint64","internalType":"uint64"},{"name":"sender","type":"address","internalType":"address"},{"name":"token0","type":"address","internalType":"address"},{"name":"amount0","type":"uint256","internalType":"uint256"},{"name":"token1","type":"address","internalType":"address"},{"name":"amount1","type":"uint256","internalType":"uint256"},{"name":"fee","type":"uint24","internalType":"uint24"},{"name":"tickSpacing","type":"int24","internalType":"int24"},{"name":"tickLower","type":"int24","internalType":"int24"},{"name":"tickUpper","type":"int24","internalType":"int24"}],"stateMutability":"view"},{"type":"function","name":"getRouter","inputs":[],"outputs":[{"name":"","type":"address","internalType":"address"}],"stateMutability":"view"},{"type":"function","name":"hookChainId","inputs":[],"outputs":[{"name":"","type":"uint256","internalType":"uint256"}],"stateMutability":"view"},{"type":"function","name":"messageDetail","inputs":[{"name":"","type":"bytes32","internalType":"bytes32"}],"outputs":[{"name":"sourceChainSelector","type":"uint64","internalType":"uint64"},{"name":"sender","type":"address","internalType":"address"},{"name":"token0","type":"address","internalType":"address"},{"name":"amount0","type":"uint256","internalType":"uint256"},{"name":"token1","type":"address","internalType":"address"},{"name":"amount1","type":"uint256","internalType":"uint256"},{"name":"fee","type":"uint24","internalType":"uint24"},{"name":"tickSpacing","type":"int24","internalType":"int24"},{"name":"tickLower","type":"int24","internalType":"int24"},{"name":"tickUpper","type":"int24","internalType":"int24"}],"stateMutability":"view"},{"type":"function","name":"poolManager","inputs":[],"outputs":[{"name":"","type":"address","internalType":"contract IPoolManager"}],"stateMutability":"view"},{"type":"function","name":"receivedMessages","inputs":[{"name":"","type":"uint256","internalType":"uint256"}],"outputs":[{"name":"","type":"bytes32","internalType":"bytes32"}],"stateMutability":"view"},{"type":"function","name":"sendMessage","inputs":[{"name":"destinationChainSelector","type":"uint64","internalType":"uint64"},{"name":"sender","type":"address","internalType":"address"},{"name":"receiver","type":"address","internalType":"address"},{"name":"token0","type":"address","internalType":"address"},{"name":"amount0","type":"uint256","internalType":"uint256"},{"name":"token1","type":"address","internalType":"address"},{"name":"amount1","type":"uint256","internalType":"uint256"},{"name":"fee","type":"uint24","internalType":"uint24"},{"name":"tickSpacing","type":"int24","internalType":"int24"},{"name":"tickLower","type":"int24","internalType":"int24"},{"name":"tickUpper","type":"int24","internalType":"int24"}],"outputs":[{"name":"messageId","type":"bytes32","internalType":"bytes32"}],"stateMutability":"nonpayable"},{"type":"function","name":"setAuthorizedUser","inputs":[{"name":"newAuthorizedUser","type":"address","internalType":"address"}],"outputs":[],"stateMutability":"nonpayable"},{"type":"function","name":"setHookChainId","inputs":[{"name":"newHookChainId","type":"uint256","internalType":"uint256"}],"outputs":[],"stateMutability":"nonpayable"},{"type":"function","name":"supportsInterface","inputs":[{"name":"interfaceId","type":"bytes4","internalType":"bytes4"}],"outputs":[{"name":"","type":"bool","internalType":"bool"}],"stateMutability":"pure"},{"type":"function","name":"unlockCallback","inputs":[{"name":"data","type":"bytes","internalType":"bytes"}],"outputs":[{"name":"","type":"bytes","internalType":"bytes"}],"stateMutability":"nonpayable"},{"type":"event","name":"Log","inputs":[{"name":"amount0","type":"uint256","indexed":false,"internalType":"uint256"},{"name":"amount1","type":"uint256","indexed":false,"internalType":"uint256"}],"anonymous":false},{"type":"event","name":"Log2","inputs":[{"name":"message","type":"string","indexed":false,"internalType":"string"}],"anonymous":false},{"type":"event","name":"MessageReceived","inputs":[{"name":"messageId","type":"bytes32","indexed":true,"internalType":"bytes32"},{"name":"sourceChainSelector","type":"uint64","indexed":true,"internalType":"uint64"},{"name":"sender","type":"address","indexed":false,"internalType":"address"},{"name":"tokenAmount0","type":"tuple","indexed":false,"internalType":"struct Client.EVMTokenAmount","components":[{"name":"token","type":"address","internalType":"address"},{"name":"amount","type":"uint256","internalType":"uint256"}]},{"name":"tokenAmount1","type":"tuple","indexed":false,"internalType":"struct Client.EVMTokenAmount","components":[{"name":"token","type":"address","internalType":"address"},{"name":"amount","type":"uint256","internalType":"uint256"}]}],"anonymous":false},{"type":"event","name":"MessageSent","inputs":[{"name":"messageId","type":"bytes32","indexed":true,"internalType":"bytes32"},{"name":"destinationChainSelector","type":"uint64","indexed":true,"internalType":"uint64"},{"name":"receiver","type":"address","indexed":false,"internalType":"address"},{"name":"tokenAmount0","type":"tuple","indexed":false,"internalType":"struct Client.EVMTokenAmount","components":[{"name":"token","type":"address","internalType":"address"},{"name":"amount","type":"uint256","internalType":"uint256"}]},{"name":"tokenAmount1","type":"tuple","indexed":false,"internalType":"struct Client.EVMTokenAmount","components":[{"name":"token","type":"address","internalType":"address"},{"name":"amount","type":"uint256","internalType":"uint256"}]},{"name":"fees","type":"uint256","indexed":false,"internalType":"uint256"}],"anonymous":false},{"type":"event","name":"StrategyAdded","inputs":[{"name":"poolId","type":"bytes32","indexed":false,"internalType":"PoolId"},{"name":"strategyId","type":"uint256","indexed":false,"internalType":"uint256"},{"name":"chainIds","type":"uint256[]","indexed":false,"internalType":"uint256[]"},{"name":"liquidityPercentages","type":"uint256[]","indexed":false,"internalType":"uint256[]"},{"name":"hooks","type":"address[]","indexed":false,"internalType":"address[]"}],"anonymous":false},{"type":"error","name":"FailedToWithdrawEth","inputs":[{"name":"owner","type":"address","internalType":"address"},{"name":"target","type":"address","internalType":"address"},{"name":"value","type":"uint256","internalType":"uint256"}]},{"type":"error","name":"HookNotImplemented","inputs":[]},{"type":"error","name":"IndexOutOfBound","inputs":[{"name":"providedIndex","type":"uint256","internalType":"uint256"},{"name":"maxIndex","type":"uint256","internalType":"uint256"}]},{"type":"error","name":"InsufficientFeeTokenAmount","inputs":[]},{"type":"error","name":"InvalidPool","inputs":[]},{"type":"error","name":"InvalidRouter","inputs":[{"name":"router","type":"address","internalType":"address"}]},{"type":"error","name":"LockFailure","inputs":[]},{"type":"error","name":"MessageIdNotExist","inputs":[{"name":"messageId","type":"bytes32","internalType":"bytes32"}]},{"type":"error","name":"NoMessageReceived","inputs":[]},{"type":"error","name":"NotPoolManager","inputs":[]},{"type":"error","name":"NotSelf","inputs":[]},{"type":"error","name":"NothingToWithdraw","inputs":[]}],"bytecode":{"object":"0x60c060405234801561000f575f80fd5b506040516147da3803806147da83398101604081905261002e91610315565b838080836001600160a01b03811661005f576040516335fdcccd60e21b81525f600482015260240160405180910390fd5b6001600160a01b039081166080521660a0525061007b306100a6565b5050600355600280546001600160a01b0319166001600160a01b039290921691909117905550610367565b61019981610194604080516101c0810182525f80825260208201819052918101829052606081018290526080810182905260a0810182905260c0810182905260e08101829052610100810182905261012081018290526101408101829052610160810182905261018081018290526101a081019190915250604080516101c0810182525f80825260208201819052600192820192909252606081018290526080810182905260a0810182905260c0810182905260e08101829052610100810182905261012081018290526101408101829052610160810182905261018081018290526101a081019190915290565b61019c565b50565b80511515612000831615151415806101c05750602081015115156110008316151514155b806101d75750604081015115156108008316151514155b806101ee5750606081015115156104008316151514155b806102055750608081015115156102008316151514155b8061021c575060a081015115156101008316151514155b80610232575060c0810151151560808316151514155b80610248575060e0810151151560408316151514155b8061025f5750610100810151151560208316151514155b806102765750610120810151151560108316151514155b8061028d5750610140810151151560088316151514155b806102a45750610160810151151560048316151514155b806102bb5750610180810151151560028316151514155b806102d257506101a0810151151560018316151514155b156102e8576102e8630732d7b560e51b836102ec565b5050565b815f526001600160a01b03811660045260245ffd5b6001600160a01b0381168114610199575f80fd5b5f805f8060808587031215610328575f80fd5b845161033381610301565b602086015190945061034481610301565b60408601516060870151919450925061035c81610301565b939692955090935050565b60805160a0516143f06103ea5f395f818161066c01528181610a6401528181610ab6015281816111e30152818161127b0152818161135d015281816116e40152818161178d015281816119880152818161203f015281816122a40152818161233f015281816125ba0152612c1201525f81816104c00152610a0301526143f05ff3fe608060405234801561000f575f80fd5b50600436106101c6575f3560e01c80639c3ddb2e116100fe578063c4e833ce1161009e578063dc4c90d31161006e578063dc4c90d314610667578063e1b4af6914610529578063e53e81de1461068e578063eebc927b146106a1575f80fd5b8063c4e833ce14610537578063c66197a51461062e578063cfefd15f14610641578063d030366c14610654575f80fd5b8063aa4daabd116100d9578063aa4daabd146104ab578063b0f479a1146104be578063b47b2fb1146104f8578063b6a8b0fa14610529575f80fd5b80639c3ddb2e146104145780639f063efc146103a5578063a910f80f1461049d575f80fd5b80634f9af75f116101695780636c2bbe7e116101445780636c2bbe7e146103a557806385572ffb146103d85780638e121bda146103eb57806391dd7346146103f4575f80fd5b80634f9af75f146102d357806351bd6698146102e6578063575e24b414610367575f80fd5b8063259982e5116101a4578063259982e51461022f578063263596a5146102425780632a1a984e146102935780633440d820146102c5575f80fd5b806301ffc9a7146101ca5780630b652d6d146101f257806321d0ee7014610203575b5f80fd5b6101dd6101d8366004613164565b6106b4565b60405190151581526020015b60405180910390f35b5f545b6040519081526020016101e9565b610216610211366004613209565b6106ea565b6040516001600160e01b031990911681526020016101e9565b61021661023d366004613209565b610704565b61024a61076b565b604080519788526001600160401b0390961660208801526001600160a01b0394851695870195909552918316606086015260808501521660a083015260c082015260e0016101e9565b6102c36102a136600461327f565b600280546001600160a01b0319166001600160a01b0392909216919091179055565b005b61021661021136600461329a565b6102c36102e13660046132f3565b600355565b6102f96102f43660046132f3565b61088f565b604080516001600160401b03909b168b526001600160a01b03998a1660208c0152978916978a0197909752606089019590955295909216608087015260a086015262ffffff1660c0850152600292830b60e0850152820b610100840152900b610120820152610140016101e9565b61037a61037536600461331a565b6109c1565b604080516001600160e01b03199094168452602084019290925262ffffff16908201526060016101e9565b6103b86103b3366004613373565b6109dd565b604080516001600160e01b031990931683526020830191909152016101e9565b6102c36103e63660046133fd565b6109f8565b6101f560035481565b61040761040236600461342e565b610a57565b6040516101e9919061349a565b6102f96104223660046132f3565b600160208190525f9182526040909120805491810154600280830154600384015460048501546005909501546001600160401b038716966001600160a01b03600160401b9091048116969581169593949216929162ffffff82169163010000008104820b91600160301b8204810b91600160481b9004900b8a565b6102166102113660046134c5565b6101f56104b93660046136d8565b610ab3565b7f00000000000000000000000000000000000000000000000000000000000000005b6040516001600160a01b0390911681526020016101e9565b6105066103b3366004613716565b604080516001600160e01b03199093168352600f9190910b6020830152016101e9565b610216610211366004613778565b610621604080516101c0810182525f80825260208201819052918101829052606081018290526080810182905260a0810182905260c0810182905260e08101829052610100810182905261012081018290526101408101829052610160810182905261018081018290526101a081019190915250604080516101c0810182525f80825260208201819052600192820192909252606081018290526080810182905260a0810182905260c0810182905260e08101829052610100810182905261012081018290526101408101829052610160810182905261018081018290526101a081019190915290565b6040516101e991906137d1565b6102c361063c366004613a53565b610bad565b6101f561064f366004613b19565b610e2e565b6101f56106623660046132f3565b610ed3565b6104e07f000000000000000000000000000000000000000000000000000000000000000081565b6002546104e0906001600160a01b031681565b61024a6106af3660046132f3565b610ef1565b5f6001600160e01b031982166385572ffb60e01b14806106e457506001600160e01b031982166301ffc9a760e01b145b92915050565b5f604051630a85dc2960e01b815260040160405180910390fd5b5f6001600160a01b03861630146107585760405162461bcd60e51b815260206004820152601360248201527253656e646572206d75737420626520686f6f6b60681b60448201526064015b60405180910390fd5b5063259982e560e01b5b95945050505050565b5f805f805f805f80805490505f0361079657604051636ad69dd560e01b815260040160405180910390fd5b5f80546107a590600190613bf2565b815481106107b5576107b5613c05565b5f91825260208083209190910154808352600180835260409384902084516101408101865281546001600160401b038116808352600160401b9091046001600160a01b0390811696830187905293830154841696820187905260028084015460608401819052600385015490951660808401819052600485015460a0850181905260059095015462ffffff811660c086015263010000008104830b60e0860152600160301b8104830b610100860152600160481b900490910b61012090930192909252939d939c50939a5093985096509094509092509050565b5f81815260016020818152604080842081516101408101835281546001600160401b03811682526001600160a01b03600160401b909104811694820185905294820154851692810192909252600280820154606084015260038201549094166080830152600481015460a08301526005015462ffffff811660c083015263010000008104840b60e0830152600160301b8104840b610100830152600160481b900490920b6101208301528291829182918291829182918291829182919061096c57604051634d47bb3360e01b8152600481018d905260240161074f565b805f015181602001518260400151836060015184608001518560a001518660c001518760e001518861010001518961012001519a509a509a509a509a509a509a509a509a509a50509193959799509193959799565b5f805f604051630a85dc2960e01b815260040160405180910390fd5b5f80604051630a85dc2960e01b815260040160405180910390fd5b336001600160a01b037f00000000000000000000000000000000000000000000000000000000000000001614610a43576040516335fdcccd60e21b815233600482015260240161074f565b610a54610a4f82613d15565b611022565b50565b6060336001600160a01b037f00000000000000000000000000000000000000000000000000000000000000001614610aa25760405163570c108560e11b815260040160405180910390fd5b610aac838361162e565b9392505050565b5f7f00000000000000000000000000000000000000000000000000000000000000006001600160a01b03166348c894916040518060a00160405280336001600160a01b031681526020018781526020018681526020018581526020015f1515815250604051602001610b259190613e09565b6040516020818303038152906040526040518263ffffffff1660e01b8152600401610b50919061349a565b5f604051808303815f875af1158015610b6b573d5f803e3d5ffd5b505050506040513d5f823e601f3d908101601f19168201604052610b929190810190613e7e565b806020019051810190610ba59190613ef2565b949350505050565b5f86815260046020908152604080832088845290915290205415610c245760405162461bcd60e51b815260206004820152602860248201527f537472617465677920494420616c726561647920696e2075736520666f7220746044820152671a1a5cc81c1bdbdb60c21b606482015260840161074f565b8251845114610ca95760405162461bcd60e51b8152602060048201526044602482018190527f436861696e2049447320616e64206c69717569646974792070657263656e7461908201527f67657320617272617973206d7573742068617665207468652073616d65206c656064820152630dccee8d60e31b608482015260a40161074f565b5f805b8451811015610ce457848181518110610cc757610cc7613c05565b602002602001015182610cda9190613f09565b9150600101610cac565b5080606414610d465760405162461bcd60e51b815260206004820152602860248201527f4c69717569646974792070657263656e7461676573206d75737420616464207560448201526707020746f203130360c41b606482015260840161074f565b604080516080810182528681526020808201879052818301869052606082018590525f8a8152600482528381208a82528252929092208151805192939192610d919284920190613004565b506020828101518051610daa9260018501920190613004565b5060408201518051610dc691600284019160209091019061304d565b5060608201518051610de29160038401916020909101906130fd565b509050507fb85cad7b43fc29e1b0d15ee1bcd0ce8e0d3b300d52349e071ccc5615ab2d346e8787878786604051610e1d959493929190613f56565b60405180910390a150505050505050565b5f806040518061016001604052808e6001600160401b031681526020018c6001600160a01b031681526020018d6001600160a01b031681526020018b6001600160a01b031681526020018a8152602001896001600160a01b031681526020018881526020018762ffffff1681526020018660020b81526020018560020b81526020018460020b8152509050610ec281611a3b565b9d9c50505050505050505050505050565b5f8181548110610ee1575f80fd5b5f91825260209091200154905081565b5f805f805f805f80805490508810610f35575f548890610f1390600190613bf2565b604051630d03942760e41b81526004810192909252602482015260440161074f565b5f8881548110610f4757610f47613c05565b5f91825260208083209190910154808352600180835260409384902084516101408101865281546001600160401b038116808352600160401b9091046001600160a01b0390811696830187905293830154841696820187905260028084015460608401819052600385015490951660808401819052600485015460a0850181905260059095015462ffffff811660c086015263010000008104830b60e0860152600160301b8104830b610100860152600160481b900490910b61012090930192909252939e939d50939b509399509750909550909350915050565b80516020808301516040840151805191925f926110459290810182019101613fd6565b5f80546001810182558180527f290decd9548b62a8d60345a988386fc84ba6bc95484008f6362f93160ef3e56301859055604080516101408101825282815260208101839052908101829052606081018290526080810182905260a0810182905260c0810182905260e08101829052610100810182905261012081019190915290915084606001518060200190518101906110e09190613ff1565b600290810b60a087015290810b60808087019190915291900b606085015262ffffff90911660408401526001600160a01b039091166020830152850151805181905f9061112f5761112f613c05565b6020908102919091010151516001600160a01b031660c0830152805181905f9061115b5761115b613c05565b6020026020010151602001518260e00181815250508060018151811061118357611183613c05565b6020908102919091010151516001600160a01b03166101008301528051819060019081106111b3576111b3613c05565b602090810291909101810151015161012083015260c082015160405163095ea7b360e01b81526001600160a01b037f0000000000000000000000000000000000000000000000000000000000000000811660048301525f1960248301529091169063095ea7b3906044016020604051808303815f875af1158015611239573d5f803e3d5ffd5b505050506040513d601f19601f8201168201806040525081019061125d919061406f565b5061010082015160405163095ea7b360e01b81526001600160a01b037f0000000000000000000000000000000000000000000000000000000000000000811660048301525f1960248301529091169063095ea7b3906044016020604051808303815f875af11580156112d1573d5f803e3d5ffd5b505050506040513d601f19601f820116820180604052508101906112f5919061406f565b506040805160a08101825260c08401516001600160a01b0390811682526101008501511660208201528382015162ffffff169181019190915260608084015160020b908201523060808201525f61134d8260a0902090565b90505f6113836001600160a01b037f00000000000000000000000000000000000000000000000000000000000000001683611f14565b5050509050611393838683611fc6565b61139c8561218b565b866001600160401b0316887f9391e8cec0214ace0e137c992c13eeff27bcc5d1a64ed69007590003c1395b9988875f815181106113db576113db613c05565b6020026020010151886001815181106113f6576113f6613c05565b602002602001015160405161140d9392919061408a565b60405180910390a3604051806101400160405280886001600160401b03168152602001876001600160a01b031681526020018660c001516001600160a01b031681526020018660e0015181526020018661010001516001600160a01b031681526020018661012001518152602001866040015162ffffff168152602001866060015160020b8152602001866080015160020b81526020018660a0015160020b81525060015f8a81526020019081526020015f205f820151815f015f6101000a8154816001600160401b0302191690836001600160401b031602179055506020820151815f0160086101000a8154816001600160a01b0302191690836001600160a01b031602179055506040820151816001015f6101000a8154816001600160a01b0302191690836001600160a01b03160217905550606082015181600201556080820151816003015f6101000a8154816001600160a01b0302191690836001600160a01b0316021790555060a0820151816004015560c0820151816005015f6101000a81548162ffffff021916908362ffffff16021790555060e08201518160050160036101000a81548162ffffff021916908360020b62ffffff1602179055506101008201518160050160066101000a81548162ffffff021916908360020b62ffffff1602179055506101208201518160050160096101000a81548162ffffff021916908360020b62ffffff160217905550905050505050505050505050565b60605f61163d838501856140d9565b60208101519091505f6116518260a0902090565b835160808501516040808701515f8581526004602090815283822060608b01518352905291822094955092939192919083156116b157604080516020810183905201604051602081830303815290604052985050505050505050506106e4565b5f886040015160400151121561176e57604080516020810182525f81529051632d35e7ed60e11b81526001600160a01b037f00000000000000000000000000000000000000000000000000000000000000001691635a6bcfda9161171c918b9188919060040161414b565b60408051808303815f875af1158015611737573d5f803e3d5ffd5b505050506040513d601f19601f8201168201806040525081019061175b919061419a565b5090506117698588836122a2565b611a10565b5f61177d8385604001516123de565b90505f6117b36001600160a01b037f00000000000000000000000000000000000000000000000000000000000000001689611f14565b50505090505f5b845481101561195857600354855f0182815481106117da576117da613c05565b905f5260205f20015414611950575f8061180e8886858151811061180057611800613c05565b602002602001015186612497565b60408051838152602081018390529294509092507fbd0faddf87043dd749c1b9d4dca8a12589b8cb5e2106832111ce23f219b14367910160405180910390a17f16783dda8fe899b47fa72274509d788dc4b657c9628a27189a81f451725e7de2604051611896906020808252600790820152660416d6f756e74360cc1b604082015260600190565b60405180910390a18483815181106118b0576118b0613c05565b6020026020010151886040018181516118c991906141bc565b90525060038701805461194d918c91869081106118e8576118e8613c05565b5f9182526020909120015460028a0180546001600160a01b03909216918790811061191557611915613c05565b905f5260205f2090600491828204019190066008029054906101000a90046001600160401b03168f86868e5f01518f602001516125a1565b50505b6001016117ba565b505f85604001511315611a0d57604080516020810182525f81529051632d35e7ed60e11b81526001600160a01b037f00000000000000000000000000000000000000000000000000000000000000001691635a6bcfda916119c0918d918a919060040161414b565b60408051808303815f875af11580156119db573d5f803e3d5ffd5b505050506040513d601f19601f820116820180604052508101906119ff919061419a565b509250611a0d878a8561277c565b50505b6040805160208101839052016040516020818303038152906040529850505050505050505092915050565b5f8082604001518360e00151846101000151856101200151866101400151604051602001611aa09594939291906001600160a01b0395909516855262ffffff939093166020850152600291820b6040850152810b60608401520b608082015260a00190565b60408051808303601f1901815260028084526060840190925292505f9190816020015b604080518082019091525f8082526020820152815260200190600190039081611ac3579050509050604051806040016040528085606001516001600160a01b031681526020018560800151815250815f81518110611b2357611b23613c05565b602002602001018190525060405180604001604052808560a001516001600160a01b031681526020018560c0015181525081600181518110611b6757611b67613c05565b60200260200101819052505f6040518060a001604052808660200151604051602001611ba291906001600160a01b0391909116815260200190565b60405160208183030381529060405281526020018481526020018381526020015f6001600160a01b03168152602001611c2360405180602001604052806207a12081525060408051915160248084019190915281518084039091018152604490920190526020810180516001600160e01b03166397a657c960e01b17905290565b81525090505f306001600160a01b031663b0f479a16040518163ffffffff1660e01b8152600401602060405180830381865afa158015611c65573d5f803e3d5ffd5b505050506040513d601f19601f82011682018060405250810190611c899190613fd6565b6060870151608088015160405163095ea7b360e01b81526001600160a01b0380851660048301526024820192909252929350169063095ea7b3906044016020604051808303815f875af1158015611ce2573d5f803e3d5ffd5b505050506040513d601f19601f82011682018060405250810190611d06919061406f565b5060a086015160c087015160405163095ea7b360e01b81526001600160a01b038481166004830152602482019290925291169063095ea7b3906044016020604051808303815f875af1158015611d5e573d5f803e3d5ffd5b505050506040513d601f19601f82011682018060405250810190611d82919061406f565b5085516040516320487ded60e01b81525f916001600160a01b038416916320487ded91611db39187906004016141db565b602060405180830381865afa158015611dce573d5f803e3d5ffd5b505050506040513d601f19601f82011682018060405250810190611df29190613ef2565b905080471015611e15576040516303ed377360e11b815260040160405180910390fd5b86516040516396f4e9f960e01b81526001600160a01b038416916396f4e9f9918491611e459188906004016141db565b60206040518083038185885af1158015611e61573d5f803e3d5ffd5b50505050506040513d601f19601f82011682018060405250810190611e869190613ef2565b9550865f01516001600160401b0316867f49dfdfd34fc45a029bac18cb6d9efb790e3d19bbf3c3bad9c23fff97678b02a78960200151875f81518110611ece57611ece613c05565b602002602001015188600181518110611ee957611ee9613c05565b602002602001015186604051611f0294939291906142bf565b60405180910390a35050505050919050565b5f805f805f611f22866127b4565b604051631e2eaeaf60e01b8152600481018290529091505f906001600160a01b03891690631e2eaeaf90602401602060405180830381865afa158015611f6a573d5f803e3d5ffd5b505050506040513d601f19601f82011682018060405250810190611f8e9190613ef2565b90506001600160a01b03811695508060a01c60020b945062ffffff8160b81c16935062ffffff8160d01c169250505092959194509250565b5f611fd483608001516127f0565b90505f611fe48460a001516127f0565b90505f611ffd8484848860e00151896101200151612aa8565b90505f6040518060800160405280876080015160020b81526020018760a0015160020b8152602001836001600160801b031681526020015f801b81525090505f7f00000000000000000000000000000000000000000000000000000000000000006001600160a01b03166348c894916040518060a00160405280336001600160a01b031681526020018b815260200185815260200160018152602001600115158152506040516020016120b09190613e09565b6040516020818303038152906040526040518263ffffffff1660e01b81526004016120db919061349a565b5f604051808303815f875af11580156120f6573d5f803e3d5ffd5b505050506040513d5f823e601f3d908101601f1916820160405261211d9190810190613e7e565b8060200190518101906121309190613ef2565b905061213c8160801d90565b6001600160801b03168760e0018181516121569190613bf2565b90525061216381600f0b90565b6001600160801b0316876101200181815161217e9190613bf2565b9052505050505050505050565b60e0810151156122145760c0810151815160e083015160405163a9059cbb60e01b81526001600160a01b039283166004820152602481019190915291169063a9059cbb906044016020604051808303815f875af11580156121ee573d5f803e3d5ffd5b505050506040513d601f19601f82011682018060405250810190612212919061406f565b505b61012081015115610a5457610100810151815161012083015160405163a9059cbb60e01b81526001600160a01b039283166004820152602481019190915291169063a9059cbb906044016020604051808303815f875af115801561227a573d5f803e3d5ffd5b505050506040513d601f19601f8201168201806040525081019061229e919061406f565b5050565b7f00000000000000000000000000000000000000000000000000000000000000006001600160a01b0316630b0d9c09835f0151856122e08560801d90565b6122e990614314565b6001600160801b03166040518463ffffffff1660e01b815260040161231093929190614341565b5f604051808303815f87803b158015612327575f80fd5b505af1158015612339573d5f803e3d5ffd5b505050507f00000000000000000000000000000000000000000000000000000000000000006001600160a01b0316630b0d9c0983602001518561237c85600f0b90565b61238590614314565b6001600160801b03166040518463ffffffff1660e01b81526004016123ac93929190614341565b5f604051808303815f87803b1580156123c3575f80fd5b505af11580156123d5573d5f803e3d5ffd5b50505050505050565b81546060906001600160401b038111156123fa576123fa61354e565b604051908082528060200260200182016040528015612423578160200160208202803683370190505b5090505f5b8354811015612490575f84600101828154811061244757612447613c05565b905f5260205f2001549050606481856124609190614365565b61246a919061437c565b83838151811061247c5761247c613c05565b602090810291909101015250600101612428565b5092915050565b5f805f6124a6865f01516127f0565b90505f6124b687602001516127f0565b9050816001600160a01b0316856001600160a01b031611612519576001600160a01b038216612505606088901b6124ed858561439b565b6001600160a01b0316846001600160a01b0316612b67565b61250f919061437c565b93505f9250612597565b806001600160a01b0316856001600160a01b03161015612583576001600160a01b03851661254f606088901b6124ed888561439b565b612559919061437c565b935061257c86612569848861439b565b6001600160a01b0316600160601b612b67565b9250612597565b5f935061259486612569848461439b565b92505b5050935093915050565b5f6125e06125b08760a0902090565b6001600160a01b037f00000000000000000000000000000000000000000000000000000000000000001690611f14565b505087516040516323b872dd60e01b81529193506001600160a01b031691506323b872dd90612617908c9030908a90600401614341565b6020604051808303815f875af1158015612633573d5f803e3d5ffd5b505050506040513d601f19601f82011682018060405250810190612657919061406f565b5085602001516001600160a01b03166323b872dd8a30876040518463ffffffff1660e01b815260040161268c93929190614341565b6020604051808303815f875af11580156126a8573d5f803e3d5ffd5b505050506040513d601f19601f820116820180604052508101906126cc919061406f565b505f604051806101600160405280896001600160401b031681526020018a6001600160a01b031681526020018b6001600160a01b03168152602001885f01516001600160a01b0316815260200187815260200188602001516001600160a01b03168152602001868152602001886040015162ffffff168152602001886060015160020b81526020018560020b81526020018460020b815250905061276f81611a3b565b5050505050505050505050565b61279c83835f015161278e8460801d90565b61279790614314565b612c03565b6127af83836020015161278e84600f0b90565b505050565b6040515f906127d3908390600690602001918252602082015260400190565b604051602081830303815290604052805190602001209050919050565b60020b5f60ff82901d80830118620d89e8811115612819576128196345c3193d60e11b84612c42565b7001fffcb933bd6fad37aa2d162d1a5940016001821602600160801b186002821615612855576ffff97272373d413259a46990580e213a0260801c5b6004821615612874576ffff2e50f5f656932ef12357cf3c7fdcc0260801c5b6008821615612893576fffe5caca7e10e4e61c3624eaa0941cd00260801c5b60108216156128b2576fffcb9843d60f6159c9db58835c9266440260801c5b60208216156128d1576fff973b41fa98c081472e6896dfb254c00260801c5b60408216156128f0576fff2ea16466c96a3843ec78b326b528610260801c5b608082161561290f576ffe5dee046a99a2a811c461f1969c30530260801c5b61010082161561292f576ffcbe86c7900a88aedcffc83b479aa3a40260801c5b61020082161561294f576ff987a7253ac413176f2b074cf7815e540260801c5b61040082161561296f576ff3392b0822b70005940c7a398e4b70f30260801c5b61080082161561298f576fe7159475a2c29b7443b29c7fa6e889d90260801c5b6110008216156129af576fd097f3bdfd2022b8845ad8f792aa58250260801c5b6120008216156129cf576fa9f746462d870fdf8a65dc1f90e061e50260801c5b6140008216156129ef576f70d869a156d2a1b890bb3df62baf32f70260801c5b618000821615612a0f576f31be135f97d08fd981231505542fcfa60260801c5b62010000821615612a30576f09aa508b5b7a84e1c677de54f3e99bc90260801c5b62020000821615612a50576e5d6af8dedb81196699c329225ee6040260801c5b62040000821615612a6f576d2216e584f5fa1ea926041bedfe980260801c5b62080000821615612a8c576b048a170391f7dc42444e8fa20260801c5b5f841315612a98575f19045b63ffffffff0160201c9392505050565b5f836001600160a01b0316856001600160a01b03161115612ac7579293925b846001600160a01b0316866001600160a01b031611612af257612aeb858585612c51565b9050610762565b836001600160a01b0316866001600160a01b03161015612b52575f612b18878686612c51565b90505f612b26878986612cb9565b9050806001600160801b0316826001600160801b031610612b475780612b49565b815b92505050610762565b612b5d858584612cb9565b9695505050505050565b5f838302815f1985870982811083820303915050808411612b86575f80fd5b805f03612b9857508290049050610aac565b5f848688095f868103871696879004966002600389028118808a02820302808a02820302808a02820302808a02820302808a02820302808a02909103029181900381900460010186841190950394909402919094039290920491909117919091029150509392505050565b6127af6001600160a01b0383167f0000000000000000000000000000000000000000000000000000000000000000856001600160801b0385165f612cee565b815f528060020b60045260245ffd5b5f826001600160a01b0316846001600160a01b03161115612c70579192915b5f612c92856001600160a01b0316856001600160a01b0316600160601b612b67565b9050610762612cb48483612ca6898961439b565b6001600160a01b0316612b67565b612fb1565b5f826001600160a01b0316846001600160a01b03161115612cd8579192915b610ba5612cb483600160601b612ca6888861439b565b8015612d8257836001600160a01b031663f5298aca84612d1d886001600160a01b03166001600160a01b031690565b6040516001600160e01b031960e085901b1681526001600160a01b0390921660048301526024820152604481018590526064015f604051808303815f87803b158015612d67575f80fd5b505af1158015612d79573d5f803e3d5ffd5b50505050612faa565b6001600160a01b038516612df957836001600160a01b03166311da60b4836040518263ffffffff1660e01b815260040160206040518083038185885af1158015612dce573d5f803e3d5ffd5b50505050506040513d601f19601f82011682018060405250810190612df39190613ef2565b50612faa565b604051632961046560e21b81526001600160a01b03868116600483015285169063a5841194906024015f604051808303815f87803b158015612e39575f80fd5b505af1158015612e4b573d5f803e3d5ffd5b505050506001600160a01b0383163014612ed5576040516323b872dd60e01b81526001600160a01b038616906323b872dd90612e8f90869088908790600401614341565b6020604051808303815f875af1158015612eab573d5f803e3d5ffd5b505050506040513d601f19601f82011682018060405250810190612ecf919061406f565b50612f47565b60405163a9059cbb60e01b81526001600160a01b0385811660048301526024820184905286169063a9059cbb906044016020604051808303815f875af1158015612f21573d5f803e3d5ffd5b505050506040513d601f19601f82011682018060405250810190612f45919061406f565b505b836001600160a01b03166311da60b46040518163ffffffff1660e01b81526004016020604051808303815f875af1158015612f84573d5f803e3d5ffd5b505050506040513d601f19601f82011682018060405250810190612fa89190613ef2565b505b5050505050565b806001600160801b0381168114612fff5760405162461bcd60e51b81526020600482015260126024820152716c6971756964697479206f766572666c6f7760701b604482015260640161074f565b919050565b828054828255905f5260205f2090810192821561303d579160200282015b8281111561303d578251825591602001919060010190613022565b50613049929150613150565b5090565b828054828255905f5260205f209060030160049004810192821561303d579160200282015f5b838211156130bd57835183826101000a8154816001600160401b0302191690836001600160401b031602179055509260200192600801602081600701049283019260010302613073565b80156130f05782816101000a8154906001600160401b0302191690556008016020816007010492830192600103026130bd565b5050613049929150613150565b828054828255905f5260205f2090810192821561303d579160200282015b8281111561303d57825182546001600160a01b0319166001600160a01b0390911617825560209092019160019091019061311b565b5b80821115613049575f8155600101613151565b5f60208284031215613174575f80fd5b81356001600160e01b031981168114610aac575f80fd5b6001600160a01b0381168114610a54575f80fd5b5f60a082840312156131af575f80fd5b50919050565b5f608082840312156131af575f80fd5b5f8083601f8401126131d5575f80fd5b5081356001600160401b038111156131eb575f80fd5b602083019150836020828501011115613202575f80fd5b9250929050565b5f805f805f610160868803121561321e575f80fd5b85356132298161318b565b9450613238876020880161319f565b93506132478760c088016131b5565b92506101408601356001600160401b03811115613262575f80fd5b61326e888289016131c5565b969995985093965092949392505050565b5f6020828403121561328f575f80fd5b8135610aac8161318b565b5f805f805f61010086880312156132af575f80fd5b85356132ba8161318b565b94506132c9876020880161319f565b935060c08601356132d98161318b565b925060e08601356001600160401b03811115613262575f80fd5b5f60208284031215613303575f80fd5b5035919050565b5f606082840312156131af575f80fd5b5f805f805f610140868803121561332f575f80fd5b853561333a8161318b565b9450613349876020880161319f565b93506133588760c0880161330a565b92506101208601356001600160401b03811115613262575f80fd5b5f805f805f805f6101a0888a03121561338a575f80fd5b87356133958161318b565b96506133a48960208a0161319f565b95506133b38960c08a016131b5565b9450610140880135935061016088013592506101808801356001600160401b038111156133de575f80fd5b6133ea8a828b016131c5565b989b979a50959850939692959293505050565b5f6020828403121561340d575f80fd5b81356001600160401b03811115613422575f80fd5b610ba58482850161319f565b5f806020838503121561343f575f80fd5b82356001600160401b03811115613454575f80fd5b613460858286016131c5565b90969095509350505050565b5f81518084528060208401602086015e5f602082860101526020601f19601f83011685010191505092915050565b602081525f610aac602083018461346c565b8060020b8114610a54575f80fd5b8035612fff816134ac565b5f805f805f8061012087890312156134db575f80fd5b86356134e68161318b565b95506134f5886020890161319f565b945060c08701356135058161318b565b935060e0870135613515816134ac565b92506101008701356001600160401b03811115613530575f80fd5b61353c89828a016131c5565b979a9699509497509295939492505050565b634e487b7160e01b5f52604160045260245ffd5b60405160a081016001600160401b03811182821017156135845761358461354e565b60405290565b604080519081016001600160401b03811182821017156135845761358461354e565b604051601f8201601f191681016001600160401b03811182821017156135d4576135d461354e565b604052919050565b62ffffff81168114610a54575f80fd5b5f60a082840312156135fc575f80fd5b613604613562565b905081356136118161318b565b815260208201356136218161318b565b60208201526040820135613634816135dc565b60408201526060820135613647816134ac565b6060820152608082013561365a8161318b565b608082015292915050565b5f60808284031215613675575f80fd5b604051608081016001600160401b03811182821017156136975761369761354e565b60405290508082356136a8816134ac565b815260208301356136b8816134ac565b602082015260408381013590820152606092830135920191909152919050565b5f805f61014084860312156136eb575f80fd5b6136f585856135ec565b92506137048560a08601613665565b92959294505050610120919091013590565b5f805f805f80610160878903121561372c575f80fd5b86356137378161318b565b9550613746886020890161319f565b94506137558860c0890161330a565b935061012087013592506101408701356001600160401b03811115613530575f80fd5b5f805f805f80610120878903121561378e575f80fd5b86356137998161318b565b95506137a8886020890161319f565b945060c0870135935060e087013592506101008701356001600160401b03811115613530575f80fd5b8151151581526101c0810160208301516137ef602084018215159052565b506040830151613803604084018215159052565b506060830151613817606084018215159052565b50608083015161382b608084018215159052565b5060a083015161383f60a084018215159052565b5060c083015161385360c084018215159052565b5060e083015161386760e084018215159052565b5061010083015161387d61010084018215159052565b5061012083015161389361012084018215159052565b506101408301516138a961014084018215159052565b506101608301516138bf61016084018215159052565b506101808301516138d561018084018215159052565b506101a08301516124906101a084018215159052565b5f6001600160401b038211156139035761390361354e565b5060051b60200190565b5f82601f83011261391c575f80fd5b813561392f61392a826138eb565b6135ac565b8082825260208201915060208360051b860101925085831115613950575f80fd5b602085015b8381101561396d578035835260209283019201613955565b5095945050505050565b80356001600160401b0381168114612fff575f80fd5b5f82601f83011261399c575f80fd5b81356139aa61392a826138eb565b8082825260208201915060208360051b8601019250858311156139cb575f80fd5b602085015b8381101561396d576139e181613977565b8352602092830192016139d0565b5f82601f8301126139fe575f80fd5b8135613a0c61392a826138eb565b8082825260208201915060208360051b860101925085831115613a2d575f80fd5b602085015b8381101561396d578035613a458161318b565b835260209283019201613a32565b5f805f805f8060c08789031215613a68575f80fd5b863595506020870135945060408701356001600160401b03811115613a8b575f80fd5b613a9789828a0161390d565b94505060608701356001600160401b03811115613ab2575f80fd5b613abe89828a0161390d565b93505060808701356001600160401b03811115613ad9575f80fd5b613ae589828a0161398d565b92505060a08701356001600160401b03811115613b00575f80fd5b613b0c89828a016139ef565b9150509295509295509295565b5f805f805f805f805f805f6101608c8e031215613b34575f80fd5b613b3d8c613977565b9a5060208c0135613b4d8161318b565b995060408c0135613b5d8161318b565b985060608c0135613b6d8161318b565b975060808c0135965060a08c0135613b848161318b565b955060c08c0135945060e08c0135613b9b816135dc565b93506101008c0135613bac816134ac565b92506101208c0135613bbd816134ac565b9150613bcc6101408d016134ba565b90509295989b509295989b9093969950565b634e487b7160e01b5f52601160045260245ffd5b818103818111156106e4576106e4613bde565b634e487b7160e01b5f52603260045260245ffd5b5f6001600160401b03821115613c3157613c3161354e565b50601f01601f191660200190565b5f82601f830112613c4e575f80fd5b8135613c5c61392a82613c19565b818152846020838601011115613c70575f80fd5b816020850160208301375f918101602001919091529392505050565b5f82601f830112613c9b575f80fd5b8135613ca961392a826138eb565b8082825260208201915060208360061b860101925085831115613cca575f80fd5b602085015b8381101561396d5760408188031215613ce6575f80fd5b613cee61358a565b8135613cf98161318b565b8152602082810135818301529084529290920191604001613ccf565b5f60a08236031215613d25575f80fd5b613d2d613562565b82358152613d3d60208401613977565b602082015260408301356001600160401b03811115613d5a575f80fd5b613d6636828601613c3f565b60408301525060608301356001600160401b03811115613d84575f80fd5b613d9036828601613c3f565b60608301525060808301356001600160401b03811115613dae575f80fd5b613dba36828601613c8c565b60808301525092915050565b80516001600160a01b03908116835260208083015182169084015260408083015162ffffff169084015260608083015160020b9084015260809182015116910152565b81516001600160a01b03168152602080830151610180830191613e2e90840182613dc6565b506040838101518051600290810b60c08601526020820151900b60e08501529081015161010084015260609081015161012084015283015161014083015260809092015115156101609091015290565b5f60208284031215613e8e575f80fd5b81516001600160401b03811115613ea3575f80fd5b8201601f81018413613eb3575f80fd5b8051613ec161392a82613c19565b818152856020838501011115613ed5575f80fd5b8160208401602083015e5f91810160200191909152949350505050565b5f60208284031215613f02575f80fd5b5051919050565b808201808211156106e4576106e4613bde565b5f8151808452602084019350602083015f5b82811015613f4c578151865260209586019590910190600101613f2e565b5093949350505050565b85815284602082015260a060408201525f613f7460a0830186613f1c565b8281036060840152613f868186613f1c565b8381036080850152845180825260208087019350909101905f5b81811015613fc75783516001600160a01b0316835260209384019390920191600101613fa0565b50909998505050505050505050565b5f60208284031215613fe6575f80fd5b8151610aac8161318b565b5f805f805f60a08688031215614005575f80fd5b85516140108161318b565b6020870151909550614021816135dc565b6040870151909450614032816134ac565b6060870151909350614043816134ac565b6080870151909250614054816134ac565b809150509295509295909350565b8015158114610a54575f80fd5b5f6020828403121561407f575f80fd5b8151610aac81614062565b6001600160a01b038416815260a081016140ba602083018580516001600160a01b03168252602090810151910152565b82516001600160a01b0316606083015260208301516080830152610ba5565b5f6101808284031280156140eb575f80fd5b506140f4613562565b82356140ff8161318b565b815261410e84602085016135ec565b60208201526141208460c08501613665565b6040820152610140830135606082015261016083013561413f81614062565b60808201529392505050565b6141558185613dc6565b8251600290810b60a08301526020840151900b60c0820152604083015160e082015260608301516101008201526101406101208201525f61076261014083018461346c565b5f80604083850312156141ab575f80fd5b505080516020909101519092909150565b8181035f83128015838313168383128216171561249057612490613bde565b6001600160401b0383168152604060208201525f825160a0604084015261420560e084018261346c565b90506020840151603f19848303016060850152614222828261346c565b6040860151858203603f190160808701528051808352602091820194505f93509101905b808310156142835761426c82855180516001600160a01b03168252602090810151910152565b604082019150602084019350600183019250614246565b5060608601516001600160a01b031660a08601526080860151858203603f190160c087015292506142b4818461346c565b979650505050505050565b6001600160a01b038516815260c081016142ef602083018680516001600160a01b03168252602090810151910152565b83516001600160a01b03166060830152602090930151608082015260a0015292915050565b5f81600f0b6f7fffffffffffffffffffffffffffffff19810361433957614339613bde565b5f0392915050565b6001600160a01b039384168152919092166020820152604081019190915260600190565b80820281158282048414176106e4576106e4613bde565b5f8261439657634e487b7160e01b5f52601260045260245ffd5b500490565b6001600160a01b0382811682821603908111156106e4576106e4613bde56fea2646970667358221220cda67de7e4c8997b12334bf4fe13abc8ae9f7deeb9dc8ad54c502092052166ce64736f6c634300081a0033","linkReferences":{}},"methodIdentifiers":{"addLiquidityWithCrossChainStrategy((address,address,uint24,int24,address),(int24,int24,int256,bytes32),uint256)":"aa4daabd","addStrategy(bytes32,uint256,uint256[],uint256[],uint64[],address[])":"c66197a5","afterAddLiquidity(address,(address,address,uint24,int24,address),(int24,int24,int256,bytes32),int256,int256,bytes)":"9f063efc","afterDonate(address,(address,address,uint24,int24,address),uint256,uint256,bytes)":"e1b4af69","afterInitialize(address,(address,address,uint24,int24,address),uint160,int24,bytes)":"a910f80f","afterRemoveLiquidity(address,(address,address,uint24,int24,address),(int24,int24,int256,bytes32),int256,int256,bytes)":"6c2bbe7e","afterSwap(address,(address,address,uint24,int24,address),(bool,int256,uint160),int256,bytes)":"b47b2fb1","authorizedUser()":"e53e81de","beforeAddLiquidity(address,(address,address,uint24,int24,address),(int24,int24,int256,bytes32),bytes)":"259982e5","beforeDonate(address,(address,address,uint24,int24,address),uint256,uint256,bytes)":"b6a8b0fa","beforeInitialize(address,(address,address,uint24,int24,address),uint160,bytes)":"3440d820","beforeRemoveLiquidity(address,(address,address,uint24,int24,address),(int24,int24,int256,bytes32),bytes)":"21d0ee70","beforeSwap(address,(address,address,uint24,int24,address),(bool,int256,uint160),bytes)":"575e24b4","ccipReceive((bytes32,uint64,bytes,bytes,(address,uint256)[]))":"85572ffb","getHookPermissions()":"c4e833ce","getLastReceivedMessageDetails()":"263596a5","getNumberOfReceivedMessages()":"0b652d6d","getReceivedMessageAt(uint256)":"eebc927b","getReceivedMessageDetails(bytes32)":"51bd6698","getRouter()":"b0f479a1","hookChainId()":"8e121bda","messageDetail(bytes32)":"9c3ddb2e","poolManager()":"dc4c90d3","receivedMessages(uint256)":"d030366c","sendMessage(uint64,address,address,address,uint256,address,uint256,uint24,int24,int24,int24)":"cfefd15f","setAuthorizedUser(address)":"2a1a984e","setHookChainId(uint256)":"4f9af75f","supportsInterface(bytes4)":"01ffc9a7","unlockCallback(bytes)":"91dd7346"},"id":160}